{
  "address": "0x4D3ADCDDA510F9556c10491D8D253b2aa5eE9d19",
  "abi": [
    {
      "inputs": [
        {
          "internalType": "address",
          "name": "initialOwner",
          "type": "address"
        }
      ],
      "stateMutability": "nonpayable",
      "type": "constructor"
    },
    {
      "inputs": [
        {
          "internalType": "address",
          "name": "sender",
          "type": "address"
        },
        {
          "internalType": "uint256",
          "name": "tokenId",
          "type": "uint256"
        },
        {
          "internalType": "address",
          "name": "owner",
          "type": "address"
        }
      ],
      "name": "ERC721IncorrectOwner",
      "type": "error"
    },
    {
      "inputs": [
        {
          "internalType": "address",
          "name": "operator",
          "type": "address"
        },
        {
          "internalType": "uint256",
          "name": "tokenId",
          "type": "uint256"
        }
      ],
      "name": "ERC721InsufficientApproval",
      "type": "error"
    },
    {
      "inputs": [
        {
          "internalType": "address",
          "name": "approver",
          "type": "address"
        }
      ],
      "name": "ERC721InvalidApprover",
      "type": "error"
    },
    {
      "inputs": [
        {
          "internalType": "address",
          "name": "operator",
          "type": "address"
        }
      ],
      "name": "ERC721InvalidOperator",
      "type": "error"
    },
    {
      "inputs": [
        {
          "internalType": "address",
          "name": "owner",
          "type": "address"
        }
      ],
      "name": "ERC721InvalidOwner",
      "type": "error"
    },
    {
      "inputs": [
        {
          "internalType": "address",
          "name": "receiver",
          "type": "address"
        }
      ],
      "name": "ERC721InvalidReceiver",
      "type": "error"
    },
    {
      "inputs": [
        {
          "internalType": "address",
          "name": "sender",
          "type": "address"
        }
      ],
      "name": "ERC721InvalidSender",
      "type": "error"
    },
    {
      "inputs": [
        {
          "internalType": "uint256",
          "name": "tokenId",
          "type": "uint256"
        }
      ],
      "name": "ERC721NonexistentToken",
      "type": "error"
    },
    {
      "inputs": [],
      "name": "EmptyProposalURI",
      "type": "error"
    },
    {
      "inputs": [
        {
          "internalType": "enum EntewardProject.ProjectStatus",
          "name": "current",
          "type": "uint8"
        },
        {
          "internalType": "enum EntewardProject.ProjectStatus",
          "name": "requested",
          "type": "uint8"
        }
      ],
      "name": "InvalidStatusTransition",
      "type": "error"
    },
    {
      "inputs": [],
      "name": "NoProjectsExist",
      "type": "error"
    },
    {
      "inputs": [
        {
          "internalType": "address",
          "name": "owner",
          "type": "address"
        }
      ],
      "name": "OwnableInvalidOwner",
      "type": "error"
    },
    {
      "inputs": [
        {
          "internalType": "address",
          "name": "account",
          "type": "address"
        }
      ],
      "name": "OwnableUnauthorizedAccount",
      "type": "error"
    },
    {
      "inputs": [
        {
          "internalType": "uint256",
          "name": "page",
          "type": "uint256"
        },
        {
          "internalType": "uint256",
          "name": "maxPages",
          "type": "uint256"
        }
      ],
      "name": "PageOutOfBounds",
      "type": "error"
    },
    {
      "inputs": [
        {
          "internalType": "uint256",
          "name": "tokenId",
          "type": "uint256"
        }
      ],
      "name": "ProjectNotFound",
      "type": "error"
    },
    {
      "inputs": [],
      "name": "ReportURIRequired",
      "type": "error"
    },
    {
      "inputs": [],
      "name": "TransfersNotAllowed",
      "type": "error"
    },
    {
      "anonymous": false,
      "inputs": [
        {
          "indexed": true,
          "internalType": "address",
          "name": "owner",
          "type": "address"
        },
        {
          "indexed": true,
          "internalType": "address",
          "name": "approved",
          "type": "address"
        },
        {
          "indexed": true,
          "internalType": "uint256",
          "name": "tokenId",
          "type": "uint256"
        }
      ],
      "name": "Approval",
      "type": "event"
    },
    {
      "anonymous": false,
      "inputs": [
        {
          "indexed": true,
          "internalType": "address",
          "name": "owner",
          "type": "address"
        },
        {
          "indexed": true,
          "internalType": "address",
          "name": "operator",
          "type": "address"
        },
        {
          "indexed": false,
          "internalType": "bool",
          "name": "approved",
          "type": "bool"
        }
      ],
      "name": "ApprovalForAll",
      "type": "event"
    },
    {
      "anonymous": false,
      "inputs": [
        {
          "indexed": true,
          "internalType": "address",
          "name": "previousOwner",
          "type": "address"
        },
        {
          "indexed": true,
          "internalType": "address",
          "name": "newOwner",
          "type": "address"
        }
      ],
      "name": "OwnershipTransferred",
      "type": "event"
    },
    {
      "anonymous": false,
      "inputs": [
        {
          "indexed": true,
          "internalType": "uint256",
          "name": "tokenId",
          "type": "uint256"
        },
        {
          "indexed": false,
          "internalType": "string",
          "name": "proposalURI",
          "type": "string"
        }
      ],
      "name": "ProjectCreated",
      "type": "event"
    },
    {
      "anonymous": false,
      "inputs": [
        {
          "indexed": true,
          "internalType": "uint256",
          "name": "tokenId",
          "type": "uint256"
        },
        {
          "indexed": false,
          "internalType": "string",
          "name": "reportURI",
          "type": "string"
        }
      ],
      "name": "ProjectReportAdded",
      "type": "event"
    },
    {
      "anonymous": false,
      "inputs": [
        {
          "indexed": true,
          "internalType": "uint256",
          "name": "tokenId",
          "type": "uint256"
        },
        {
          "indexed": false,
          "internalType": "enum EntewardProject.ProjectStatus",
          "name": "newStatus",
          "type": "uint8"
        }
      ],
      "name": "ProjectStatusUpdated",
      "type": "event"
    },
    {
      "anonymous": false,
      "inputs": [
        {
          "indexed": true,
          "internalType": "address",
          "name": "from",
          "type": "address"
        },
        {
          "indexed": true,
          "internalType": "address",
          "name": "to",
          "type": "address"
        },
        {
          "indexed": true,
          "internalType": "uint256",
          "name": "tokenId",
          "type": "uint256"
        }
      ],
      "name": "Transfer",
      "type": "event"
    },
    {
      "inputs": [],
      "name": "VERSION",
      "outputs": [
        {
          "internalType": "string",
          "name": "",
          "type": "string"
        }
      ],
      "stateMutability": "view",
      "type": "function"
    },
    {
      "inputs": [
        {
          "internalType": "address",
          "name": "",
          "type": "address"
        },
        {
          "internalType": "uint256",
          "name": "",
          "type": "uint256"
        }
      ],
      "name": "approve",
      "outputs": [],
      "stateMutability": "pure",
      "type": "function"
    },
    {
      "inputs": [
        {
          "internalType": "address",
          "name": "owner",
          "type": "address"
        }
      ],
      "name": "balanceOf",
      "outputs": [
        {
          "internalType": "uint256",
          "name": "",
          "type": "uint256"
        }
      ],
      "stateMutability": "view",
      "type": "function"
    },
    {
      "inputs": [
        {
          "internalType": "uint256",
          "name": "tokenId",
          "type": "uint256"
        }
      ],
      "name": "getApproved",
      "outputs": [
        {
          "internalType": "address",
          "name": "",
          "type": "address"
        }
      ],
      "stateMutability": "view",
      "type": "function"
    },
    {
      "inputs": [
        {
          "internalType": "uint256",
          "name": "tokenId",
          "type": "uint256"
        }
      ],
      "name": "getProject",
      "outputs": [
        {
          "internalType": "enum EntewardProject.ProjectStatus",
          "name": "status",
          "type": "uint8"
        },
        {
          "internalType": "string",
          "name": "proposalURI",
          "type": "string"
        },
        {
          "internalType": "string",
          "name": "reportURI",
          "type": "string"
        }
      ],
      "stateMutability": "view",
      "type": "function"
    },
    {
      "inputs": [
        {
          "internalType": "uint256",
          "name": "projectsPerPage",
          "type": "uint256"
        },
        {
          "internalType": "uint256",
          "name": "page",
          "type": "uint256"
        }
      ],
      "name": "getProjects",
      "outputs": [
        {
          "internalType": "uint256[]",
          "name": "tokenIds",
          "type": "uint256[]"
        },
        {
          "internalType": "enum EntewardProject.ProjectStatus[]",
          "name": "statuses",
          "type": "uint8[]"
        },
        {
          "internalType": "string[]",
          "name": "proposalURIs",
          "type": "string[]"
        },
        {
          "internalType": "string[]",
          "name": "reportURIs",
          "type": "string[]"
        }
      ],
      "stateMutability": "view",
      "type": "function"
    },
    {
      "inputs": [],
      "name": "getTotalProjects",
      "outputs": [
        {
          "internalType": "uint256",
          "name": "",
          "type": "uint256"
        }
      ],
      "stateMutability": "view",
      "type": "function"
    },
    {
      "inputs": [
        {
          "internalType": "address",
          "name": "owner",
          "type": "address"
        },
        {
          "internalType": "address",
          "name": "operator",
          "type": "address"
        }
      ],
      "name": "isApprovedForAll",
      "outputs": [
        {
          "internalType": "bool",
          "name": "",
          "type": "bool"
        }
      ],
      "stateMutability": "view",
      "type": "function"
    },
    {
      "inputs": [],
      "name": "name",
      "outputs": [
        {
          "internalType": "string",
          "name": "",
          "type": "string"
        }
      ],
      "stateMutability": "view",
      "type": "function"
    },
    {
      "inputs": [],
      "name": "owner",
      "outputs": [
        {
          "internalType": "address",
          "name": "",
          "type": "address"
        }
      ],
      "stateMutability": "view",
      "type": "function"
    },
    {
      "inputs": [
        {
          "internalType": "uint256",
          "name": "tokenId",
          "type": "uint256"
        }
      ],
      "name": "ownerOf",
      "outputs": [
        {
          "internalType": "address",
          "name": "",
          "type": "address"
        }
      ],
      "stateMutability": "view",
      "type": "function"
    },
    {
      "inputs": [
        {
          "internalType": "uint256",
          "name": "",
          "type": "uint256"
        }
      ],
      "name": "projects",
      "outputs": [
        {
          "internalType": "enum EntewardProject.ProjectStatus",
          "name": "status",
          "type": "uint8"
        },
        {
          "internalType": "string",
          "name": "proposalURI",
          "type": "string"
        },
        {
          "internalType": "string",
          "name": "reportURI",
          "type": "string"
        }
      ],
      "stateMutability": "view",
      "type": "function"
    },
    {
      "inputs": [],
      "name": "renounceOwnership",
      "outputs": [],
      "stateMutability": "nonpayable",
      "type": "function"
    },
    {
      "inputs": [
        {
          "internalType": "string",
          "name": "proposalURI",
          "type": "string"
        }
      ],
      "name": "safeMint",
      "outputs": [
        {
          "internalType": "uint256",
          "name": "tokenId",
          "type": "uint256"
        }
      ],
      "stateMutability": "nonpayable",
      "type": "function"
    },
    {
      "inputs": [
        {
          "internalType": "address",
          "name": "from",
          "type": "address"
        },
        {
          "internalType": "address",
          "name": "to",
          "type": "address"
        },
        {
          "internalType": "uint256",
          "name": "tokenId",
          "type": "uint256"
        }
      ],
      "name": "safeTransferFrom",
      "outputs": [],
      "stateMutability": "nonpayable",
      "type": "function"
    },
    {
      "inputs": [
        {
          "internalType": "address",
          "name": "from",
          "type": "address"
        },
        {
          "internalType": "address",
          "name": "to",
          "type": "address"
        },
        {
          "internalType": "uint256",
          "name": "tokenId",
          "type": "uint256"
        },
        {
          "internalType": "bytes",
          "name": "data",
          "type": "bytes"
        }
      ],
      "name": "safeTransferFrom",
      "outputs": [],
      "stateMutability": "nonpayable",
      "type": "function"
    },
    {
      "inputs": [
        {
          "internalType": "address",
          "name": "",
          "type": "address"
        },
        {
          "internalType": "bool",
          "name": "",
          "type": "bool"
        }
      ],
      "name": "setApprovalForAll",
      "outputs": [],
      "stateMutability": "pure",
      "type": "function"
    },
    {
      "inputs": [
        {
          "internalType": "bytes4",
          "name": "interfaceId",
          "type": "bytes4"
        }
      ],
      "name": "supportsInterface",
      "outputs": [
        {
          "internalType": "bool",
          "name": "",
          "type": "bool"
        }
      ],
      "stateMutability": "view",
      "type": "function"
    },
    {
      "inputs": [],
      "name": "symbol",
      "outputs": [
        {
          "internalType": "string",
          "name": "",
          "type": "string"
        }
      ],
      "stateMutability": "view",
      "type": "function"
    },
    {
      "inputs": [
        {
          "internalType": "uint256",
          "name": "tokenId",
          "type": "uint256"
        }
      ],
      "name": "tokenURI",
      "outputs": [
        {
          "internalType": "string",
          "name": "",
          "type": "string"
        }
      ],
      "stateMutability": "view",
      "type": "function"
    },
    {
      "inputs": [
        {
          "internalType": "address",
          "name": "from",
          "type": "address"
        },
        {
          "internalType": "address",
          "name": "to",
          "type": "address"
        },
        {
          "internalType": "uint256",
          "name": "tokenId",
          "type": "uint256"
        }
      ],
      "name": "transferFrom",
      "outputs": [],
      "stateMutability": "nonpayable",
      "type": "function"
    },
    {
      "inputs": [
        {
          "internalType": "address",
          "name": "newOwner",
          "type": "address"
        }
      ],
      "name": "transferOwnership",
      "outputs": [],
      "stateMutability": "nonpayable",
      "type": "function"
    },
    {
      "inputs": [
        {
          "internalType": "uint256",
          "name": "tokenId",
          "type": "uint256"
        },
        {
          "internalType": "enum EntewardProject.ProjectStatus",
          "name": "newStatus",
          "type": "uint8"
        },
        {
          "internalType": "string",
          "name": "reportURI",
          "type": "string"
        }
      ],
      "name": "updateStatus",
      "outputs": [],
      "stateMutability": "nonpayable",
      "type": "function"
    }
  ],
  "transactionHash": "0xcce8ae45a5153dc0e1dcdf518740668a8002bc48357ff4b711dcdcd80a8ab723",
  "args": [
    "0xF68B75C16B140EF5258132999E2B9692ECbcf819"
  ],
  "numDeployments": 1,
  "solcInputHash": "df00028eb2fac9f5fba05c13240dbf91",
  "bytecode": "0x60806040523480156200001157600080fd5b50604051620023883803806200238883398101604081905262000034916200012f565b806040518060400160405280600f81526020016e115b9d195dd85c99141c9bda9958dd608a1b81525060405180604001604052806002815260200161045560f41b815250816000908162000089919062000206565b50600162000098828262000206565b5050506001600160a01b038116620000ca57604051631e4fbdf760e01b81526000600482015260240160405180910390fd5b620000d581620000dd565b5050620002d2565b600680546001600160a01b038381166001600160a01b0319831681179093556040519116919082907f8be0079c531659141344cd1fd0a4f28419497f9722a3daafe3b4186f6b6457e090600090a35050565b6000602082840312156200014257600080fd5b81516001600160a01b03811681146200015a57600080fd5b9392505050565b634e487b7160e01b600052604160045260246000fd5b600181811c908216806200018c57607f821691505b602082108103620001ad57634e487b7160e01b600052602260045260246000fd5b50919050565b601f8211156200020157600081815260208120601f850160051c81016020861015620001dc5750805b601f850160051c820191505b81811015620001fd57828155600101620001e8565b5050505b505050565b81516001600160401b0381111562000222576200022262000161565b6200023a8162000233845462000177565b84620001b3565b602080601f831160018114620002725760008415620002595750858301515b600019600386901b1c1916600185901b178555620001fd565b600085815260208120601f198616915b82811015620002a35788860151825594840194600190910190840162000282565b5085821015620002c25787850151600019600388901b60f8161c191681555b5050505050600190811b01905550565b6120a680620002e26000396000f3fe608060405234801561001057600080fd5b506004361061014d5760003560e01c8063781f0b72116100c3578063b88d4fde1161007c578063b88d4fde146102cb578063c87b56dd146102de578063e985e9c5146102f1578063f0f3f2c814610304578063f2fde38b14610317578063ffa1ad741461032a57600080fd5b8063781f0b7214610266578063812739a2146102795780638da5cb5b1461028157806395d89b4114610292578063a22cb4651461029a578063a84ce2b5146102a857600080fd5b806323b872dd1161011557806323b872dd146101f157806342842e0e146102045780636352211e14610217578063695850fb1461022a57806370a082311461024b578063715018a61461025e57600080fd5b806301ffc9a71461015257806306fdde031461017a578063081812fc1461018f578063095ea7b3146101ba578063107046bd146101cf575b600080fd5b6101656101603660046117d6565b61034e565b60405190151581526020015b60405180910390f35b6101826103a0565b6040516101719190611843565b6101a261019d366004611856565b610432565b6040516001600160a01b039091168152602001610171565b6101cd6101c836600461188b565b61045b565b005b6101e26101dd366004611856565b610474565b604051610171939291906118ed565b6101cd6101ff366004611929565b6105ab565b6101cd610212366004611929565b61063b565b6101a2610225366004611856565b61065b565b61023d6102383660046119ae565b610666565b604051908152602001610171565b61023d6102593660046119f0565b6107b9565b6101cd610801565b6101cd610274366004611a0b565b610815565b60075461023d565b6006546001600160a01b03166101a2565b61018261099a565b6101cd6101c8366004611a6b565b6102bb6102b6366004611aa7565b6109a9565b6040516101719493929190611b1e565b6101cd6102d9366004611bde565b610d6f565b6101826102ec366004611856565b610d86565b6101656102ff366004611cba565b610dfb565b6101e2610312366004611856565b610e29565b6101cd6103253660046119f0565b610fbe565b610182604051806040016040528060058152602001640302e312e360dc1b81525081565b60006001600160e01b031982166380ac58cd60e01b148061037f57506001600160e01b03198216635b5e139f60e01b145b8061039a57506301ffc9a760e01b6001600160e01b03198316145b92915050565b6060600080546103af90611ced565b80601f01602080910402602001604051908101604052809291908181526020018280546103db90611ced565b80156104285780601f106103fd57610100808354040283529160200191610428565b820191906000526020600020905b81548152906001019060200180831161040b57829003601f168201915b5050505050905090565b600061043d82610ffc565b506000828152600460205260409020546001600160a01b031661039a565b60405163ab064ad360e01b815260040160405180910390fd5b6008602052600090815260409020805460018201805460ff909216929161049a90611ced565b80601f01602080910402602001604051908101604052809291908181526020018280546104c690611ced565b80156105135780601f106104e857610100808354040283529160200191610513565b820191906000526020600020905b8154815290600101906020018083116104f657829003601f168201915b50505050509080600201805461052890611ced565b80601f016020809104026020016040519081016040528092919081815260200182805461055490611ced565b80156105a15780601f10610576576101008083540402835291602001916105a1565b820191906000526020600020905b81548152906001019060200180831161058457829003601f168201915b5050505050905083565b6001600160a01b0382166105da57604051633250574960e11b8152600060048201526024015b60405180910390fd5b60006105e7838333611035565b9050836001600160a01b0316816001600160a01b031614610635576040516364283d7b60e01b81526001600160a01b03808616600483015260248201849052821660448201526064016105d1565b50505050565b61065683838360405180602001604052806000815250610d6f565b505050565b600061039a82610ffc565b6000610670611096565b600082900361069257604051631d0202a760e01b815260040160405180910390fd5b600780549060006106a283611d3d565b9190505590506106c36106bd6006546001600160a01b031690565b826110c3565b6040805160608101909152806000815260200184848080601f016020809104026020016040519081016040528093929190818152602001838380828437600092018290525093855250506040805160208181018352848252948501528583526008909352502081518154829060ff19166001836003811115610747576107476118b5565b0217905550602082015160018201906107609082611da4565b50604082015160028201906107759082611da4565b50905050807fed06d1e70f1faa0e1750def1b3a1d942390a8f47d03679c9025a1c38dc34fe7b84846040516107ab929190611e64565b60405180910390a292915050565b60006001600160a01b0382166107e5576040516322718ad960e21b8152600060048201526024016105d1565b506001600160a01b031660009081526003602052604090205490565b610809611096565b61081360006110e1565b565b61081d611096565b6000848152600260205260409020546001600160a01b03166108555760405163a89b369d60e01b8152600481018590526024016105d1565b600084815260086020526040902080546108729060ff1685611133565b61089757805460405163e3962ba360e01b81526105d19160ff16908690600401611e93565b60038460038111156108ab576108ab6118b5565b1480156108b6575081155b156108d457604051638498cab160e01b815260040160405180910390fd5b80548490829060ff191660018360038111156108f2576108f26118b5565b0217905550847f8fb6fda973f304b2834c4147004045448416c05b253872373ac5b19f4a5b7a5d856040516109279190611eae565b60405180910390a26003846003811115610943576109436118b5565b036109935760028101610957838583611ebc565b50847f21918e4d2b7d177f0ea90c1f25bcc9e87947e3bc5bb3cbf1d8a395279dfb0145848460405161098a929190611e64565b60405180910390a25b5050505050565b6060600180546103af90611ced565b60608060608060006007549050806000036109d75760405163ab9a687960e01b815260040160405180910390fd5b60006109e38888611f7c565b9050818110610a255786886109f9600185611f93565b610a039190611fa6565b604051635de89e2760e11b8152600481019290925260248201526044016105d1565b6000610a318983611fc8565b905082811115610a3e5750815b6000610a4a8383611f93565b90508067ffffffffffffffff811115610a6557610a65611bc8565b604051908082528060200260200182016040528015610a8e578160200160208202803683370190505b5097508067ffffffffffffffff811115610aaa57610aaa611bc8565b604051908082528060200260200182016040528015610ad3578160200160208202803683370190505b5096508067ffffffffffffffff811115610aef57610aef611bc8565b604051908082528060200260200182016040528015610b2257816020015b6060815260200190600190039081610b0d5790505b5095508067ffffffffffffffff811115610b3e57610b3e611bc8565b604051908082528060200260200182016040528015610b7157816020015b6060815260200190600190039081610b5c5790505b50945060005b81811015610d61578385038190036000190160008181526008602052604090208a5182908c9085908110610bad57610bad611fdb565b602090810291909101015280548a5160ff909116908b9085908110610bd457610bd4611fdb565b60200260200101906003811115610bed57610bed6118b5565b90816003811115610c0057610c006118b5565b905250600181018054610c1290611ced565b80601f0160208091040260200160405190810160405280929190818152602001828054610c3e90611ced565b8015610c8b5780601f10610c6057610100808354040283529160200191610c8b565b820191906000526020600020905b815481529060010190602001808311610c6e57829003601f168201915b5050505050898481518110610ca257610ca2611fdb565b6020026020010181905250806002018054610cbc90611ced565b80601f0160208091040260200160405190810160405280929190818152602001828054610ce890611ced565b8015610d355780601f10610d0a57610100808354040283529160200191610d35565b820191906000526020600020905b815481529060010190602001808311610d1857829003601f168201915b5050505050888481518110610d4c57610d4c611fdb565b60209081029190910101525050600101610b77565b505050505092959194509250565b610d7a8484846105ab565b610635848484846111ee565b6060610d9182610ffc565b506000610da960408051602081019091526000815290565b90506000815111610dc95760405180602001604052806000815250610df4565b80610dd384611310565b604051602001610de4929190611ff1565b6040516020818303038152906040525b9392505050565b6001600160a01b03918216600090815260056020908152604080832093909416825291909152205460ff1690565b600060608082610e4e856000908152600260205260409020546001600160a01b031690565b6001600160a01b031603610e785760405163a89b369d60e01b8152600481018590526024016105d1565b6000848152600860205260409020805460018201805460ff9092169160028401908290610ea490611ced565b80601f0160208091040260200160405190810160405280929190818152602001828054610ed090611ced565b8015610f1d5780601f10610ef257610100808354040283529160200191610f1d565b820191906000526020600020905b815481529060010190602001808311610f0057829003601f168201915b50505050509150808054610f3090611ced565b80601f0160208091040260200160405190810160405280929190818152602001828054610f5c90611ced565b8015610fa95780601f10610f7e57610100808354040283529160200191610fa9565b820191906000526020600020905b815481529060010190602001808311610f8c57829003601f168201915b50505050509050935093509350509193909250565b610fc6611096565b6001600160a01b038116610ff057604051631e4fbdf760e01b8152600060048201526024016105d1565b610ff9816110e1565b50565b6000818152600260205260408120546001600160a01b03168061039a57604051637e27328960e01b8152600481018490526024016105d1565b6000828152600260205260408120546001600160a01b0316801580159061106457506001600160a01b03851615155b156110825760405163ab064ad360e01b815260040160405180910390fd5b61108d8585856113a3565b95945050505050565b6006546001600160a01b031633146108135760405163118cdaa760e01b81523360048201526024016105d1565b6110dd82826040518060200160405280600081525061149c565b5050565b600680546001600160a01b038381166001600160a01b0319831681179093556040519116919082907f8be0079c531659141344cd1fd0a4f28419497f9722a3daafe3b4186f6b6457e090600090a35050565b60006002836003811115611149576111496118b5565b148061116657506003836003811115611164576111646118b5565b145b156111735750600061039a565b6000836003811115611187576111876118b5565b036111c55760015b8260038111156111a1576111a16118b5565b14806111be575060028260038111156111bc576111bc6118b5565b145b905061039a565b60018360038111156111d9576111d96118b5565b036111e557600361118f565b50600092915050565b6001600160a01b0383163b1561063557604051630a85bd0160e11b81526001600160a01b0384169063150b7a0290611230903390889087908790600401612020565b6020604051808303816000875af192505050801561126b575060408051601f3d908101601f1916820190925261126891810190612053565b60015b6112d4573d808015611299576040519150601f19603f3d011682016040523d82523d6000602084013e61129e565b606091505b5080516000036112cc57604051633250574960e11b81526001600160a01b03851660048201526024016105d1565b805181602001fd5b6001600160e01b03198116630a85bd0160e11b1461099357604051633250574960e11b81526001600160a01b03851660048201526024016105d1565b6060600061131d836114b3565b600101905060008167ffffffffffffffff81111561133d5761133d611bc8565b6040519080825280601f01601f191660200182016040528015611367576020820181803683370190505b5090508181016020015b600019016f181899199a1a9b1b9c1cb0b131b232b360811b600a86061a8153600a850494508461137157509392505050565b6000828152600260205260408120546001600160a01b03908116908316156113d0576113d081848661158b565b6001600160a01b0381161561140e576113ed6000856000806115ef565b6001600160a01b038116600090815260036020526040902080546000190190555b6001600160a01b0385161561143d576001600160a01b0385166000908152600360205260409020805460010190555b60008481526002602052604080822080546001600160a01b0319166001600160a01b0389811691821790925591518793918516917fddf252ad1be2c89b69c2b068fc378daa952ba7f163c4a11628f55a4df523b3ef91a4949350505050565b6114a683836116f5565b61065660008484846111ee565b60008072184f03e93ff9f4daa797ed6e38ed64bf6a1f0160401b83106114f25772184f03e93ff9f4daa797ed6e38ed64bf6a1f0160401b830492506040015b6d04ee2d6d415b85acef8100000000831061151e576d04ee2d6d415b85acef8100000000830492506020015b662386f26fc10000831061153c57662386f26fc10000830492506010015b6305f5e1008310611554576305f5e100830492506008015b612710831061156857612710830492506004015b6064831061157a576064830492506002015b600a831061039a5760010192915050565b61159683838361175a565b610656576001600160a01b0383166115c457604051637e27328960e01b8152600481018290526024016105d1565b60405163177e802f60e01b81526001600160a01b0383166004820152602481018290526044016105d1565b808061160357506001600160a01b03821615155b156116c557600061161384610ffc565b90506001600160a01b0383161580159061163f5750826001600160a01b0316816001600160a01b031614155b801561165257506116508184610dfb565b155b1561167b5760405163a9fbf51f60e01b81526001600160a01b03841660048201526024016105d1565b81156116c35783856001600160a01b0316826001600160a01b03167f8c5be1e5ebec7d5bd14f71427d1e84f3dd0314c0f7b2291e5b200ac8c7c3b92560405160405180910390a45b505b5050600090815260046020526040902080546001600160a01b0319166001600160a01b0392909216919091179055565b6001600160a01b03821661171f57604051633250574960e11b8152600060048201526024016105d1565b600061172d83836000611035565b90506001600160a01b03811615610656576040516339e3563760e11b8152600060048201526024016105d1565b60006001600160a01b038316158015906117b85750826001600160a01b0316846001600160a01b0316148061179457506117948484610dfb565b806117b857506000828152600460205260409020546001600160a01b038481169116145b949350505050565b6001600160e01b031981168114610ff957600080fd5b6000602082840312156117e857600080fd5b8135610df4816117c0565b60005b8381101561180e5781810151838201526020016117f6565b50506000910152565b6000815180845261182f8160208601602086016117f3565b601f01601f19169290920160200192915050565b602081526000610df46020830184611817565b60006020828403121561186857600080fd5b5035919050565b80356001600160a01b038116811461188657600080fd5b919050565b6000806040838503121561189e57600080fd5b6118a78361186f565b946020939093013593505050565b634e487b7160e01b600052602160045260246000fd5b600481106118e957634e487b7160e01b600052602160045260246000fd5b9052565b6118f781856118cb565b60606020820152600061190d6060830185611817565b828103604084015261191f8185611817565b9695505050505050565b60008060006060848603121561193e57600080fd5b6119478461186f565b92506119556020850161186f565b9150604084013590509250925092565b60008083601f84011261197757600080fd5b50813567ffffffffffffffff81111561198f57600080fd5b6020830191508360208285010111156119a757600080fd5b9250929050565b600080602083850312156119c157600080fd5b823567ffffffffffffffff8111156119d857600080fd5b6119e485828601611965565b90969095509350505050565b600060208284031215611a0257600080fd5b610df48261186f565b60008060008060608587031215611a2157600080fd5b84359350602085013560048110611a3757600080fd5b9250604085013567ffffffffffffffff811115611a5357600080fd5b611a5f87828801611965565b95989497509550505050565b60008060408385031215611a7e57600080fd5b611a878361186f565b915060208301358015158114611a9c57600080fd5b809150509250929050565b60008060408385031215611aba57600080fd5b50508035926020909101359150565b600081518084526020808501808196508360051b8101915082860160005b85811015611b11578284038952611aff848351611817565b98850198935090840190600101611ae7565b5091979650505050505050565b6080808252855190820181905260009060209060a0840190828901845b82811015611b5757815184529284019290840190600101611b3b565b5050508381038285015286518082528783019183019060005b81811015611b9357611b838385516118cb565b9284019291840191600101611b70565b50508481036040860152611ba78188611ac9565b925050508281036060840152611bbd8185611ac9565b979650505050505050565b634e487b7160e01b600052604160045260246000fd5b60008060008060808587031215611bf457600080fd5b611bfd8561186f565b9350611c0b6020860161186f565b925060408501359150606085013567ffffffffffffffff80821115611c2f57600080fd5b818701915087601f830112611c4357600080fd5b813581811115611c5557611c55611bc8565b604051601f8201601f19908116603f01168101908382118183101715611c7d57611c7d611bc8565b816040528281528a6020848701011115611c9657600080fd5b82602086016020830137600060208483010152809550505050505092959194509250565b60008060408385031215611ccd57600080fd5b611cd68361186f565b9150611ce46020840161186f565b90509250929050565b600181811c90821680611d0157607f821691505b602082108103611d2157634e487b7160e01b600052602260045260246000fd5b50919050565b634e487b7160e01b600052601160045260246000fd5b600060018201611d4f57611d4f611d27565b5060010190565b601f82111561065657600081815260208120601f850160051c81016020861015611d7d5750805b601f850160051c820191505b81811015611d9c57828155600101611d89565b505050505050565b815167ffffffffffffffff811115611dbe57611dbe611bc8565b611dd281611dcc8454611ced565b84611d56565b602080601f831160018114611e075760008415611def5750858301515b600019600386901b1c1916600185901b178555611d9c565b600085815260208120601f198616915b82811015611e3657888601518255948401946001909101908401611e17565b5085821015611e545787850151600019600388901b60f8161c191681555b5050505050600190811b01905550565b60208152816020820152818360408301376000818301604090810191909152601f909201601f19160101919050565b60408101611ea182856118cb565b610df460208301846118cb565b6020810161039a82846118cb565b67ffffffffffffffff831115611ed457611ed4611bc8565b611ee883611ee28354611ced565b83611d56565b6000601f841160018114611f1c5760008515611f045750838201355b600019600387901b1c1916600186901b178355610993565b600083815260209020601f19861690835b82811015611f4d5786850135825560209485019460019092019101611f2d565b5086821015611f6a5760001960f88860031b161c19848701351681555b505060018560011b0183555050505050565b808202811582820484141761039a5761039a611d27565b8181038181111561039a5761039a611d27565b600082611fc357634e487b7160e01b600052601260045260246000fd5b500490565b8082018082111561039a5761039a611d27565b634e487b7160e01b600052603260045260246000fd5b600083516120038184602088016117f3565b8351908301906120178183602088016117f3565b01949350505050565b6001600160a01b038581168252841660208201526040810183905260806060820181905260009061191f90830184611817565b60006020828403121561206557600080fd5b8151610df4816117c056fea2646970667358221220a90a7695c49bf153c01937060bdcae8cd109f13f6192fdeab9ca54b0d322a74964736f6c63430008140033",
  "devdoc": {
    "details": "ERC721 token contract for managing community projects with immutable blockchain records",
    "errors": {
      "ERC721IncorrectOwner(address,uint256,address)": [
        {
          "details": "Indicates an error related to the ownership over a particular token. Used in transfers.",
          "params": {
            "owner": "Address of the current owner of a token.",
            "sender": "Address whose tokens are being transferred.",
            "tokenId": "Identifier number of a token."
          }
        }
      ],
      "ERC721InsufficientApproval(address,uint256)": [
        {
          "details": "Indicates a failure with the `operator`s approval. Used in transfers.",
          "params": {
            "operator": "Address that may be allowed to operate on tokens without being their owner.",
            "tokenId": "Identifier number of a token."
          }
        }
      ],
      "ERC721InvalidApprover(address)": [
        {
          "details": "Indicates a failure with the `approver` of a token to be approved. Used in approvals.",
          "params": {
            "approver": "Address initiating an approval operation."
          }
        }
      ],
      "ERC721InvalidOperator(address)": [
        {
          "details": "Indicates a failure with the `operator` to be approved. Used in approvals.",
          "params": {
            "operator": "Address that may be allowed to operate on tokens without being their owner."
          }
        }
      ],
      "ERC721InvalidOwner(address)": [
        {
          "details": "Indicates that an address can't be an owner. For example, `address(0)` is a forbidden owner in EIP-20. Used in balance queries.",
          "params": {
            "owner": "Address of the current owner of a token."
          }
        }
      ],
      "ERC721InvalidReceiver(address)": [
        {
          "details": "Indicates a failure with the token `receiver`. Used in transfers.",
          "params": {
            "receiver": "Address to which tokens are being transferred."
          }
        }
      ],
      "ERC721InvalidSender(address)": [
        {
          "details": "Indicates a failure with the token `sender`. Used in transfers.",
          "params": {
            "sender": "Address whose tokens are being transferred."
          }
        }
      ],
      "ERC721NonexistentToken(uint256)": [
        {
          "details": "Indicates a `tokenId` whose `owner` is the zero address.",
          "params": {
            "tokenId": "Identifier number of a token."
          }
        }
      ],
      "OwnableInvalidOwner(address)": [
        {
          "details": "The owner is not a valid owner account. (eg. `address(0)`)"
        }
      ],
      "OwnableUnauthorizedAccount(address)": [
        {
          "details": "The caller account is not authorized to perform an operation."
        }
      ],
      "ProjectNotFound(uint256)": [
        {
          "details": "Custom errors for gas optimization and better error handling"
        }
      ]
    },
    "events": {
      "Approval(address,address,uint256)": {
        "details": "Emitted when `owner` enables `approved` to manage the `tokenId` token."
      },
      "ApprovalForAll(address,address,bool)": {
        "details": "Emitted when `owner` enables or disables (`approved`) `operator` to manage all of its assets."
      },
      "ProjectCreated(uint256,string)": {
        "details": "Emitted when a new project is created",
        "params": {
          "proposalURI": "The URI containing project proposal details",
          "tokenId": "The unique identifier of the project"
        }
      },
      "ProjectReportAdded(uint256,string)": {
        "details": "Emitted when a completion report is added to a project",
        "params": {
          "reportURI": "The URI containing project completion report",
          "tokenId": "The unique identifier of the project"
        }
      },
      "ProjectStatusUpdated(uint256,uint8)": {
        "details": "Emitted when a project's status is updated",
        "params": {
          "newStatus": "The new status of the project",
          "tokenId": "The unique identifier of the project"
        }
      },
      "Transfer(address,address,uint256)": {
        "details": "Emitted when `tokenId` token is transferred from `from` to `to`."
      }
    },
    "kind": "dev",
    "methods": {
      "approve(address,uint256)": {
        "details": "Override approve to prevent approvals since transfers are disabled"
      },
      "balanceOf(address)": {
        "details": "See {IERC721-balanceOf}."
      },
      "constructor": {
        "details": "Constructor initializes the ERC721 token and sets the initial owner",
        "params": {
          "initialOwner": "Address that will own the contract and can mint/update projects"
        }
      },
      "getApproved(uint256)": {
        "details": "See {IERC721-getApproved}."
      },
      "getProject(uint256)": {
        "details": "Retrieves detailed information for a specific project",
        "params": {
          "tokenId": "The unique identifier of the project"
        },
        "returns": {
          "proposalURI": "URI containing project proposal details",
          "reportURI": "URI containing project completion report (empty if not completed)",
          "status": "Current status of the project"
        }
      },
      "getProjects(uint256,uint256)": {
        "details": "Retrieves a paginated list of projects in descending order (newest first)",
        "params": {
          "page": "Page number (0-indexed, page 0 contains newest projects)",
          "projectsPerPage": "Number of projects to return per page"
        },
        "returns": {
          "proposalURIs": "Array of project proposal URIs",
          "reportURIs": "Array of project report URIs",
          "statuses": "Array of project statuses",
          "tokenIds": "Array of project token IDs"
        }
      },
      "getTotalProjects()": {
        "details": "Returns the total number of projects created",
        "returns": {
          "_0": "Total count of projects (equivalent to _nextTokenId)"
        }
      },
      "isApprovedForAll(address,address)": {
        "details": "See {IERC721-isApprovedForAll}."
      },
      "name()": {
        "details": "See {IERC721Metadata-name}."
      },
      "owner()": {
        "details": "Returns the address of the current owner."
      },
      "ownerOf(uint256)": {
        "details": "See {IERC721-ownerOf}."
      },
      "renounceOwnership()": {
        "details": "Leaves the contract without owner. It will not be possible to call `onlyOwner` functions. Can only be called by the current owner. NOTE: Renouncing ownership will leave the contract without an owner, thereby disabling any functionality that is only available to the owner."
      },
      "safeMint(string)": {
        "details": "Creates a new project NFT with the specified proposal",
        "params": {
          "proposalURI": "URI containing the project proposal details (cannot be empty)"
        },
        "returns": {
          "tokenId": "The unique identifier of the newly created project"
        }
      },
      "safeTransferFrom(address,address,uint256)": {
        "details": "See {IERC721-safeTransferFrom}."
      },
      "safeTransferFrom(address,address,uint256,bytes)": {
        "details": "See {IERC721-safeTransferFrom}."
      },
      "setApprovalForAll(address,bool)": {
        "details": "Override setApprovalForAll to prevent approvals since transfers are disabled"
      },
      "supportsInterface(bytes4)": {
        "details": "See {IERC165-supportsInterface}."
      },
      "symbol()": {
        "details": "See {IERC721Metadata-symbol}."
      },
      "tokenURI(uint256)": {
        "details": "See {IERC721Metadata-tokenURI}."
      },
      "transferFrom(address,address,uint256)": {
        "details": "See {IERC721-transferFrom}."
      },
      "transferOwnership(address)": {
        "details": "Transfers ownership of the contract to a new account (`newOwner`). Can only be called by the current owner."
      },
      "updateStatus(uint256,uint8,string)": {
        "details": "Updates the status of an existing project with optional completion report",
        "params": {
          "newStatus": "The new status to assign to the project",
          "reportURI": "URI containing completion report (required for completed projects)",
          "tokenId": "The unique identifier of the project to update"
        }
      }
    },
    "stateVariables": {
      "VERSION": {
        "details": "Contract version for tracking deployments"
      },
      "_nextTokenId": {
        "details": "Counter for generating unique token IDs, starts at 0"
      },
      "projects": {
        "details": "Mapping from token ID to project data"
      }
    },
    "title": "EntewardProject",
    "version": 1
  },
  "userdoc": {
    "kind": "user",
    "methods": {
      "approve(address,uint256)": {
        "notice": "Approvals are not allowed as transfers are disabled"
      },
      "getProject(uint256)": {
        "notice": "Reverts if the project does not exist"
      },
      "getProjects(uint256,uint256)": {
        "notice": "Gas-optimized for batch retrieval of project dataReturns empty arrays if no projects exist on the requested page"
      },
      "getTotalProjects()": {
        "notice": "Useful for pagination calculations and UI display"
      },
      "safeMint(string)": {
        "notice": "Only the contract owner can create new projectsProjects are minted to the contract owner and cannot be transferredProjects start with \"Upcoming\" status by default"
      },
      "setApprovalForAll(address,bool)": {
        "notice": "Approvals are not allowed as transfers are disabled"
      },
      "updateStatus(uint256,uint8,string)": {
        "notice": "Only the contract owner can update project statusStatus transitions follow strict rules to maintain data integrityCompleted projects must include a report URI"
      }
    },
    "notice": "This contract allows local representatives to create, track, and update community projects Each project is represented as an NFT with proposal and report URIs stored immutably on-chain",
    "version": 1
  },
  "storageLayout": {
    "storage": [
      {
        "astId": 317,
        "contract": "contracts/EntewardProject.sol:EntewardProject",
        "label": "_name",
        "offset": 0,
        "slot": "0",
        "type": "t_string_storage"
      },
      {
        "astId": 319,
        "contract": "contracts/EntewardProject.sol:EntewardProject",
        "label": "_symbol",
        "offset": 0,
        "slot": "1",
        "type": "t_string_storage"
      },
      {
        "astId": 323,
        "contract": "contracts/EntewardProject.sol:EntewardProject",
        "label": "_owners",
        "offset": 0,
        "slot": "2",
        "type": "t_mapping(t_uint256,t_address)"
      },
      {
        "astId": 327,
        "contract": "contracts/EntewardProject.sol:EntewardProject",
        "label": "_balances",
        "offset": 0,
        "slot": "3",
        "type": "t_mapping(t_address,t_uint256)"
      },
      {
        "astId": 331,
        "contract": "contracts/EntewardProject.sol:EntewardProject",
        "label": "_tokenApprovals",
        "offset": 0,
        "slot": "4",
        "type": "t_mapping(t_uint256,t_address)"
      },
      {
        "astId": 337,
        "contract": "contracts/EntewardProject.sol:EntewardProject",
        "label": "_operatorApprovals",
        "offset": 0,
        "slot": "5",
        "type": "t_mapping(t_address,t_mapping(t_address,t_bool))"
      },
      {
        "astId": 8,
        "contract": "contracts/EntewardProject.sol:EntewardProject",
        "label": "_owner",
        "offset": 0,
        "slot": "6",
        "type": "t_address"
      },
      {
        "astId": 2954,
        "contract": "contracts/EntewardProject.sol:EntewardProject",
        "label": "_nextTokenId",
        "offset": 0,
        "slot": "7",
        "type": "t_uint256"
      },
      {
        "astId": 2975,
        "contract": "contracts/EntewardProject.sol:EntewardProject",
        "label": "projects",
        "offset": 0,
        "slot": "8",
        "type": "t_mapping(t_uint256,t_struct(Project)2969_storage)"
      }
    ],
    "types": {
      "t_address": {
        "encoding": "inplace",
        "label": "address",
        "numberOfBytes": "20"
      },
      "t_bool": {
        "encoding": "inplace",
        "label": "bool",
        "numberOfBytes": "1"
      },
      "t_enum(ProjectStatus)2960": {
        "encoding": "inplace",
        "label": "enum EntewardProject.ProjectStatus",
        "numberOfBytes": "1"
      },
      "t_mapping(t_address,t_bool)": {
        "encoding": "mapping",
        "key": "t_address",
        "label": "mapping(address => bool)",
        "numberOfBytes": "32",
        "value": "t_bool"
      },
      "t_mapping(t_address,t_mapping(t_address,t_bool))": {
        "encoding": "mapping",
        "key": "t_address",
        "label": "mapping(address => mapping(address => bool))",
        "numberOfBytes": "32",
        "value": "t_mapping(t_address,t_bool)"
      },
      "t_mapping(t_address,t_uint256)": {
        "encoding": "mapping",
        "key": "t_address",
        "label": "mapping(address => uint256)",
        "numberOfBytes": "32",
        "value": "t_uint256"
      },
      "t_mapping(t_uint256,t_address)": {
        "encoding": "mapping",
        "key": "t_uint256",
        "label": "mapping(uint256 => address)",
        "numberOfBytes": "32",
        "value": "t_address"
      },
      "t_mapping(t_uint256,t_struct(Project)2969_storage)": {
        "encoding": "mapping",
        "key": "t_uint256",
        "label": "mapping(uint256 => struct EntewardProject.Project)",
        "numberOfBytes": "32",
        "value": "t_struct(Project)2969_storage"
      },
      "t_string_storage": {
        "encoding": "bytes",
        "label": "string",
        "numberOfBytes": "32"
      },
      "t_struct(Project)2969_storage": {
        "encoding": "inplace",
        "label": "struct EntewardProject.Project",
        "members": [
          {
            "astId": 2964,
            "contract": "contracts/EntewardProject.sol:EntewardProject",
            "label": "status",
            "offset": 0,
            "slot": "0",
            "type": "t_enum(ProjectStatus)2960"
          },
          {
            "astId": 2966,
            "contract": "contracts/EntewardProject.sol:EntewardProject",
            "label": "proposalURI",
            "offset": 0,
            "slot": "1",
            "type": "t_string_storage"
          },
          {
            "astId": 2968,
            "contract": "contracts/EntewardProject.sol:EntewardProject",
            "label": "reportURI",
            "offset": 0,
            "slot": "2",
            "type": "t_string_storage"
          }
        ],
        "numberOfBytes": "96"
      },
      "t_uint256": {
        "encoding": "inplace",
        "label": "uint256",
        "numberOfBytes": "32"
      }
    }
  }
}